:100000000C9495010C94BD010C94BD010C94281224
:100010000C9428120C9428120C94A0120C94BD017C
:100020000C94BD010C94BD010C94BD010C94BD0158
:100030000C94BD010C94BD010C94BD010C94BD0148
:100040000C94B6100C94BD010C9484100C945E10AA
:100050000C94BD010C94BD010C94BD010C94BD0128
:100060000C940D110C94BD0100407A10F35A00A0BD
:10007000724E18090010A5D4E80000E87648170071
:1000800000E40B54020000CA9A3B000000E1F505B1
:10009000000080969800000040420F000000A086FB
:1000A00001000000102700000000E803000000002D
:1000B0006400000000000A000000000001000000D1
:1000C00000002C76D888DC674F0823DFC1DFAE59EB
:1000D000E1B1B796E5E3E453C63AE651997696E87E
:1000E000E6C28426EB898C9B62ED407C6FFCEFBC02
:1000F0009C9F40F2BAA56FA5F490055A2AF75C932D
:100100006B6CF9676DC11BFCE0E40D47FEF520E662
:10011000B500D0ED902E0300943577050080841E45
:10012000080000204E0A000000C80C333333330FA0
:10013000986E12831141EF8D2114893BE65516CF3D
:10014000FEE6DB18D1844B381BF77C1D901DA4BB49
:10015000E424203284725E228100C9F124ECA1E5FE
:100160003D272F002F0020003A00005EBCE2613FD7
:10017000DD83C29C7E20A3FD1F41009D23BE46DB84
:1001800065F88C11AF32CA57E9740A2354656D7053
:1001900031230041542B4349505348555400207C8F
:1001A0007C2054696D65203A2000207C7C205465B9
:1001B0006D70203A2000207C7C20667265654D655C
:1001C0006D6F72793A2000207C7C20766F6C7461B0
:1001D0006765203A20007C7C205369676E616C2043
:1001E0003A2000534C4545505F464F5245564552C4
:1001F000004552524F522053454E440053454E4401
:10020000204F4B000A23436F756E7423000A23644A
:10021000426D23000A235662617423000A23546549
:100220006D7031230041542B4349505348555400BD
:100230000A2323000A23467265654D656D23000A73
:1002400023436F756E7423000A23506572696F64CF
:1002500023000A2364426D23000A2356626174233B
:10026000000A2354656D7031230041542B434950DB
:1002700053454E440041542B43495053544152542A
:100280003D22544350222C226E61726F646D6F6E5A
:100290002E7275222C2238323833220041542B43DF
:1002A000494653520041542B43494943520041545B
:1002B0002B435354543D22696E7465726E65742EDF
:1002C0007275220041542B43474154543D31004143
:1002D000542B435245473F005245424F4F54004133
:1002E000542B43495053485554000000000023004C
:1002F0002600290000000000250028002B0004042F
:1003000004040404040402020202020203030303BD
:100310000303010204081020408001020408102099
:100320000102040810203D137E1F11241FBECFEFD1
:10033000D8E0DEBFCDBF11E0A0E0B1E0E4EAFFE429
:1003400002C005900D92AE3DB107D9F723E0AEEDA6
:10035000B1E001C01D92A13FB207E1F711E0C4E98D
:10036000D1E004C02197FE010E94C026C339D10705
:10037000C9F70E944A140C94C5270C940000482F1A
:10038000E62F282F30E0863009F459C000F583307D
:10039000E1F1853009F44FC04830E0F14E3010F102
:1003A000443108F063C02E50310981E090E0A0E0B4
:1003B000B0E004C0880F991FAA1FBB1F2A95D2F76F
:1003C00028B1EE2309F44FC0822B88B908958A30F2
:1003D000C9F18B30D9F18930F9F6809180008F779F
:1003E000809380002850310981E090E0A0E0B0E0E7
:1003F00004C0880F991FAA1FBB1F2A95D2F7E111CD
:100400002EC025B1809582232CC09091B0009F7D95
:100410009093B00081E090E0A0E0B0E004C0880FCD
:10042000991FAA1FBB1F4A95D2F72BB1EE23A1F04B
:10043000822B8BB9089594B59F7D94BDEBCF94B575
:100440009F77FBCF809180008F7DCACF8091B000D5
:100450008F778093B000C6CF80958223EACF25B1F5
:10046000822B85B9089580958223AFCF089580911E
:10047000640080FD08C080917A00806880937A00D3
:1004800080B78F7780BF10920101089594E0899F13
:1004900090011124207287708860822B98E10FB63A
:1004A000F894A895909360000FBE80936000E0E6FA
:1004B000F0E0808180648083A89508958A3010F4EC
:1004C0000E94460283B7817F90910401892B83BFEC
:1004D00083B7816083BF80910301882391F0789472
:1004E00088950FB6F894A8958091600088618093F4
:1004F0006000109260000FBEA89583B78E7F83BF07
:100500000895F89485B7806685BF8F7D85BFE7CF56
:100510000895DB0114964D915C9115976D917C9136
:10052000DC01ED91FC910280F381E02D0994EF92C2
:10053000FF920F931F93CF93DF938C017B01D0E049
:10054000C0E0F701EC0FFD1F6491662361F0D80154
:10055000ED91FC910190F081E02DC8010995892B66
:1005600011F02196EECFCE01DF91CF911F910F9127
:10057000FF90EF900895AF92BF92CF92DF92EF92EB
:10058000FF920F931F93CF93DF936C017B018B013D
:10059000040F151FEB015E01AE18BF08C017D1078D
:1005A00059F06991D601ED91FC910190F081E02D17
:1005B000C6010995892B79F7C501DF91CF911F916C
:1005C0000F91FF90EF90DF90CF90BF90AF90089584
:1005D000FC01538D448D252F30E0842F90E0821B49
:1005E000930B541710F0CF96089501970895FC01CE
:1005F000918D828D981761F0A28DAE0FBF2FB11D26
:100600005D968C91928D9F5F9F73928F90E008957D
:100610008FEF9FEF0895FC01918D828D981731F037
:10062000828DE80FF11D858D90E008958FEF9FEF8B
:100630000895FC01918D228D892F90E0805C9F4F61
:10064000821B91098F739927089581ED92E00E9492
:10065000190321E0892B09F420E0822F089580E01E
:1006600090E0892B29F00E94250381110C94000051
:100670000895FC01A48DA80FB92FB11DA35ABF4F37
:100680002C91848D90E001968F739927848FA68991
:10069000B7892C93A089B1898C91837080648C93E5
:1006A000938D848D981306C00288F389E02D808194
:1006B0008F7D80830895EF92FF920F931F93CF93C6
:1006C000DF93EC0181E0888F9B8D8C8D98131AC08D
:1006D000E889F989808185FF15C09FB7F894EE8974
:1006E000FF896083E889F9898081837080648083D1
:1006F0009FBF81E090E0DF91CF911F910F91FF901C
:10070000EF900895F62E0B8D10E00F5F1F4F0F73C3
:100710001127E02E8C8D8E110CC00FB607FCFACF7E
:10072000E889F989808185FFF5CFCE010E943903E0
:10073000F1CFEB8DEC0FFD2FF11DE35AFF4FF0824F
:100740009FB7F8940B8FEA89FB8980818062CFCFB5
:10075000CF93DF93EC01888D8823B9F0AA89BB89F8
:10076000E889F9898C9185FD03C0808186FD0DC0E3
:100770000FB607FCF7CF8C9185FFF2CF808185FF04
:10078000EDCFCE010E943903E9CFDF91CF910895DB
:10079000880F991F04970197F1F708953FB7F894D0
:1007A00080919C0290919D02A0919E02B0919F0227
:1007B00026B5A89B05C02F3F19F00196A11DB11DBC
:1007C0003FBFBA2FA92F982F8827BC01CD01620FF8
:1007D000711D811D911D43E0660F771F881F991FB2
:1007E0004A95D1F708958F929F92AF92BF92CF9280
:1007F000DF92EF92FF926B017C010E94CE034B01CE
:100800005C01C114D104E104F104B9F00E94CE03EB
:10081000681979098A099B09683E73408105910529
:1008200080F381E0C81AD108E108F10828EE820EB1
:1008300023E0921EA11CB11CE4CFFF90EF90DF904B
:10084000CF90BF90AF909F908F9008952FB7F8945E
:100850006091CD027091CE028091CF029091D00232
:100860002FBF089585ED8093BC008091BC0084FD6E
:10087000FCCF10927502089520915102260F332764
:10088000331F21323105ECF420917502FC0190E018
:1008900080E0243069F082E00895A0915102219116
:1008A000AC014F5C5D4FA40FB52FB11D2C93019689
:1008B000861798F380915102680F6093510280E08F
:1008C000089581E0089508958FEF9FEF08958FEFC9
:1008D0009FEF08958091300290E091958195910964
:1008E0000895CF93DF93CB01EA01642F0E943C046B
:1008F000CE01DF91CF910895CF93DF931F92CDB7B3
:10090000DEB7698361E0CE0101960E943C0481E07C
:1009100090E00F90DF91CF910895DC0180E061506D
:1009200090F09D919827E92FEF70F0E0E659FE4F87
:100930002491E92FE295EF70F0E0E658FE4FE49144
:10094000822F8E27ECCF08950F931F93CF93DF93C1
:10095000FC011081C181D281F8948981812B898326
:100960008A81012F009580238A8383E090E00E9492
:10097000C8038981802389838AE090E00E94C803AC
:10098000C881789485E390E00E94C803C12381E088
:1009900009F480E0DF91CF911F910F9108951F938B
:1009A000CF93DF93FC011081C181D281912F90956B
:1009B00060FF16C0F8948A8189238A838981812BFC
:1009C00089838AE090E00E94C8038A81182B1A83E9
:1009D000789487E390E0DF91CF911F910C94C80346
:1009E000F8948A8189238A838981812B898381E490
:1009F00090E00E94C8038A81182B1A83789485E0BE
:100A000090E0E9CFDF92EF92FF920F931F93CF9385
:100A1000DF93EC01D62EE42E08E010E0FF24F394DF
:100A200061E08D2D8F2109F460E0CE010E94CF049A
:100A3000FF0C01501109A1F7E11010C0F894E981F1
:100A4000FA8191818881809589238183E981FA8166
:100A5000928188818095892382837894DF91CF91D8
:100A60001F910F91FF90EF90DF900895EF92FF920A
:100A70000F931F93CF93DF938C017B0140E065E5DB
:100A80000E940205E70188E0E80EF11C699140E050
:100A9000C8010E940205CE15DF05C1F7DF91CF9195
:100AA0001F910F91FF90EF9008952091CA0230910D
:100AB000CB022817390771F49091C8028091C902BE
:100AC000981741F0E091C802F0E0E051FE4F8081BC
:100AD00090E008958FEF9FEF0895EF92FF920F93AC
:100AE0001F93CF93DF93DC015C96ED90FC905D97B4
:100AF000E114F10479F481E090E013969C938E93D5
:100B0000129790E080E0DF91CF911F910F91FF90BD
:100B1000EF9008955196ED91FC91529750968C91DB
:100B20005097982F90950FB75E962C915E97122F45
:100B3000127021FD6095F8942081112319F1282B62
:100B40002083E7012197F1F728E0462F50E030811C
:100B500060FF1AC0382B3083E7012197F1F7BA0103
:100B600075956795215089F7112381F0808189233C
:100B700080830FBF5C968D919C910197F1F781E086
:100B800090E0C1CF2923DCCF3923E5CF9081892B99
:100B9000EFCF2091CA023091CB022817390771F4A8
:100BA0008091C9022091C80290E0805C9F4F821B17
:100BB000910960E470E00E946E26089590E080E064
:100BC00008952091CA023091CB0228173907B9F451
:100BD0009091C8028091C902981789F0E091C802EB
:100BE000F0E0E051FE4F80812091C80230E02F5F9D
:100BF0003F4F2F7333272093C80290E008958FEF63
:100C00009FEF08950F931F930E9426046093A10302
:100C10007093A2038093A3039093A40389E993E0C4
:100C20000E94E10597FF1DC00E9426040091A103C8
:100C30001091A2032091A3033091A403601B710BB8
:100C4000820B930B00919D0310919E0320919F03B3
:100C50003091A0036017710782079307F8F28FEFB6
:100C60009FEF1F910F910895E091CA02F091CB027E
:100C7000E817F90769F4A389B4899C91858980955F
:100C800089238C931092CB021092CA0281E00895BE
:100C900080E008951092B4031092B3031092B2034F
:100CA0001092B1031092B0031092AF038DEC90E05C
:100CB0009093B6038093B5039091A503963108F005
:100CC00046C025E530E03093B0032093AF032BEC12
:100CD00030E03093B2032093B10320E930E0309349
:100CE000B4032093B3032091680084E0983048F067
:100CF00031E09E3008F430E081E001C0880F3A9581
:100D0000EAF7822B809368002DE630E0983050F0AF
:100D10002BE630E09E3030F02CE630E0963110F0DB
:100D200030E020E03093AD032093AC03292F30E076
:100D30009830C0F581E001C0880F9A95EAF780935A
:100D4000AE038091B5039091B6030197F1F78091BE
:100D5000B3039091B403892B21F18091CA02909141
:100D6000CB0223E089399207E1F0009711F00E944D
:100D700034068091B7038E7F8093B7031092C90227
:100D80001092C80289E993E09093CB028093CA0243
:100D9000E091AC03F091AD0380819091AE03892B7B
:100DA000808308959E3040F42850310981E001C0CD
:100DB000880F2A95EAF7C3CF2E503109F7CF90E07C
:100DC00080E008956093EC017093ED018093EE0153
:100DD0009093EF01645D7E4F8F4F9F4F6093E801CA
:100DE0007093E9018093EA019093EB0182E090E037
:100DF0009093E7018093E6010E9426046093E2014C
:100E00007093E3018093E4019093E5010895CF92FC
:100E1000DF92EF92FF920F931F930E9426048B01A3
:100E20009C01C090E201D090E301E090E401F090D9
:100E3000E5016091EC017091ED018091EE019091DE
:100E4000EF010C191D092E093F09083E1340210529
:100E50003105E0F0DC01CB010196A11DB11D8093AD
:100E6000EC019093ED01A093EE01B093EF01B70177
:100E7000A60148515C4F6F4F7F4F4093E201509362
:100E8000E3016093E4017093E501C7CF1F910F91D7
:100E9000FF90EF90DF90CF9008954F925F926F9206
:100EA0007F928F929F92AF92BF92CF92DF92EF92FA
:100EB000FF920F931F93CF93DF934B015C018091BF
:100EC000DE019091DF01A091E001B091E101881570
:100ED0009905AA05BB0509F4C6C08CE3C82ED12C20
:100EE000E12CF12CC501A70196010E948226609396
:100EF000A102CA01B901A70196010E94822660934E
:100F0000A202C501B40120E13EE040E050E00E94B1
:100F10008226CA01B90128E130E040E050E00E9499
:100F200082266093A302C501B40120E831E541E0C7
:100F300050E00E94822669017A01CA01B9016C5F02
:100F40007F4F8F4F9F4F27E030E040E050E00E94FE
:100F500082266F5F6093A402412C512C320140E045
:100F600004E610E0C0E9D1E0242F30E02E54384FE1
:100F7000F901E370FF273097F9F4C901B8010E9425
:100F80006E26892B31F4C901BE010E946E26892B81
:100F900099F48EE691E0A0E0B0E0480E591E6A1E7A
:100FA0007B1ED301C201AA27BB27C816D906EA06B1
:100FB000FB0638F04F5FD8CF8DE691E0A0E0B0E0BF
:100FC000ECCF4093A702C90164E670E00E946E2650
:100FD000EC01C90160E971E00E946E26309721F4AE
:100FE0002097D9F40097C9F04DE651E060E070E039
:100FF000441A550A660A770AC418D508E608F7089D
:10100000A2E1B1E020E0213069F43097E9F52097C2
:1010100011F40097C9F54DE106C04EE651E060E0DD
:1010200070E0E6CF4C9150E070E060E031E0320FCC
:10103000C416D506E606F70640F0C41AD50AE60A35
:10104000F70A1196232F3C30F1F62F5F2093A6026A
:10105000C394C092A5028092DE019092DF01A0921B
:10106000E001B092E101DF91CF911F910F91FF90CC
:10107000EF90DF90CF90BF90AF909F908F907F9038
:101080006F905F904F9008954CE1CDCFEAE7F0E08C
:1010900080818F77808380B7806880BF08958F922A
:1010A0009F92AF92BF92CF92DF92EF92FF924B014D
:1010B0005C011092000110920A0181E0809301010D
:1010C000809104018D7F11F00E9446087501640132
:1010D0008091070190910801B0E0A0E08C159D057A
:1010E000AE05BF0508F04DC080910B010E945E0265
:1010F0008091070190910801C81AD90AE108F10806
:1011000080910A0190910901890F8D3798F580939C
:101110000A01809100018823D9F28091020188237D
:10112000E9F02FB7F8948091CD029091CE02A09172
:10113000CF02B091D002880D991DAA1DBB1D4C0194
:101140005D018C189D08AE08BF088092CD02909278
:10115000CE02A092CF02B092D0022FBF0E943702DF
:101160008C2DFF90EF90DF90CF90BF90AF909F902D
:101170008F90089591E0C91AD108E108F1088D57C0
:10118000C6CF80910201882349F38FB7F89440912C
:10119000CD025091CE026091CF027091D002840EA8
:1011A000951EA61EB71E8C189D08AE08BF0880921B
:1011B000CD029092CE02A092CF02B092D0028FBF09
:1011C000CDCF8EE480937C0062E070E080E090E020
:1011D0000E94F30380917A00806480937A0080916A
:1011E0007A0086FDFCCF8091780060917900762F9F
:1011F000682F072E000C880B990B0E94C8239B01B7
:10120000AC0160EB7DE189E899E40E94BC250E9475
:101210002E2608958F929F92AF92BF92EF92FF92E7
:101220000F931F93CF93DF93EC0110E000E0E62EC5
:10123000F12C0E151F050CF043C00E942604698393
:101240007A838B839C830E94260489809A80AB805A
:10125000BC80AB01BC01481959096A097B09898521
:101260009A85B0E0A0E084179507A607B70728F095
:1012700061E088810E94BF01E6CF0E9426046D8351
:101280007E838F8398870E9426048D809E80AF8006
:10129000B884AB01BC01481959096A097B098B85DF
:1012A0009C85B0E0A0E084179507A607B70728F053
:1012B00060E088810E94BF01E6CF0F5F1F4FB9CF6A
:1012C000DF91CF911F910F91FF90EF90BF90AF9062
:1012D0009F908F900895CF93DF9300D0CDB7DEB766
:1012E0002091ED033091EE03CE01019621153105D9
:1012F00059F4815F93409A83898389819A810F9001
:101300000F90DF91CF910895821B930BE091EF0333
:10131000F091F00330E020E0309751F02E5F3F4F26
:1013200040815181240F351F0280F381E02DF4CFDD
:10133000820F931FE0CF0F931F93CF93DF93FC0196
:101340001081C181D281F8948981012F0095802379
:10135000898378949DE7915039F188818123D9F36D
:10136000F8948A8180238A838981812B8983789468
:1013700080EE91E00E94C803F894898180238983DC
:1013800086E490E00E94C80388811823C1E009F038
:10139000C0E078948AE991E00E94C8038C2FDF9125
:1013A000CF911F910F910895C0E0F8CF6F927F9277
:1013B0008F929F92AF92BF92CF92DF92EF92FF9265
:1013C0000F931F93CF93DF938C01EB0180917D03EB
:1013D00090917E030E949B09882309F43FC0B801C5
:1013E00080917D0390917E030E94360540E06EEB74
:1013F00080917D0390917E030E9402057E016E0123
:1014000089E0C80ED11C8E01A0907D03B0907E03B0
:1014100088E0882E912C712C66246394C5010E946B
:10142000A40481117628660CE1E08E1A9108B1F7C8
:10143000F80171928F01CE16DF0631F780917D039E
:1014400090917E030E949B09813041F4F7018191C4
:101450007F01811105C0E017F107C1F790E008C0D6
:1014600068E0CE010E948D0491E028852813F6CF14
:10147000892FDF91CF911F910F91FF90EF90DF9017
:10148000CF90BF90AF909F908F907F906F90089576
:10149000BF92CF92DF92EF92FF920F931F93CF9361
:1014A000DF93EC01B62EC72E8D85811105C0CE01CC
:1014B0000E949B0981110EC01B861D861C8680E040
:1014C000DF91CF911F910F91FF90EF90DF90CF9020
:1014D000BF90089540E060EFCE010E94020501E058
:1014E000E12CD12C11E0CE010E94A404F82ECE01F3
:1014F0000E94A40491E0F91218C0813099F51134CA
:10150000D8F2DB86D11002C081E08D878B818823E1
:1015100099F22396EB2DFC2DCF010896299121936A
:10152000E817F907D9F781E0CBCFEE2DF0E0F812FC
:101530000FC08B851817A0F4DE01AE0FBF1F1396E6
:101540008C91802379F4F12C193008F41C87D12E6A
:10155000EC0FFD1F8381902F9095892383830AC010
:101560008113F1CFFE01EE0DF11D8381802B83836A
:10157000FF24F3946F2DCE010E94CF041F5F000F54
:1015800011F4E39401E087E08E1508F0ACCFB7CFFB
:10159000CF93DF93CDB7DEB761970FB6F894DEBF78
:1015A0000FBECDBFE0917D03F0917E0313861586BB
:1015B000148612861186108617821682158214826E
:1015C0001382BE01665F7F4F80917D0390917E0301
:1015D0000E94480A81110DC060E070E08EEF92EC2D
:1015E00061960FB6F894DEBF0FBECDBFDF91CF91ED
:1015F000089567E0CE010A960E948D0499898913A7
:10160000EBCFBE016F5F7F4FCE010A960E94D609D5
:10161000882311F36A8170E0762F6627770F770FA2
:10162000770F298148E0249F90011124262B372B26
:101630008A858031E1F468856623C9F070E08F8186
:10164000AB01481B5109CA019695982F8827979599
:1016500087950E946E26CB018097B90153E0660FF3
:10166000771F5A95E1F760789C01260F371F2138C4
:1016700054EE35070CF4B0CFB901330F880B990B3A
:101680000E94C82320E030E040E05CE30E94272471
:10169000A7CFCF92DF92EF92FF9280917D0390913E
:1016A0007E030E949B0940E06CEC80917D03909149
:1016B0007E030E9402054091740364E480917D03DF
:1016C00090917E030E94020580917803882309F19E
:1016D000E091770380917903882301F1809174036D
:1016E00081111CC00E9426046B017C0180917D0346
:1016F00090917E030E94A404813059F00E94260438
:101700006C197D098E099F096E3E72408105910515
:1017100068F3FF90EF90DF90CF900895E9508EEE40
:1017200092E0E33038F4F0E0EE0FFF1FE25EFE4F90
:10173000808191816C01990FEE08FF0880917503FB
:10174000882329F060E0809176030E94BF01C701E1
:10175000B6010E94F303809175038823D1F261E002
:1017600080917603FF90EF90DF90CF900C94BF01B3
:10177000FB0101900020E9F73197AF01461B570BA1
:10178000DC01ED91FC910280F381E02D09948F92B0
:101790009F92AF92BF920F931F93CF93DF93CDB7DA
:1017A000DEB7A1970FB6F894DEBF0FBECDBF19A26A
:1017B000423008F44AE08E010F5D1F4F842E912CB9
:1017C000B12CA12CA50194010E948226E62FB9011B
:1017D000CA01EA3004F5E05DD801EE938D01232BB8
:1017E000242B252B79F790E080E0109729F0BD019C
:1017F00081ED92E00E94B80BA1960FB6F894DEBF7F
:101800000FBECDBFDF91CF911F910F91BF90AF90D1
:101810009F908F900895E95CDFCFCF92DF92EF9297
:10182000FF92CF93DF936C01990FEE08FF08F7FE4C
:1018300019C06DE281ED92E00E945B03EC01662726
:101840007727CB016C197D098E099F094AE00E9418
:10185000C70B8C0F9D1FDF91CF91FF90EF90DF9012
:10186000CF9008954AE0C701B601DF91CF91FF9074
:10187000EF90DF90CF900C94C70BCF93DF93EC01E8
:1018800068E671E081ED92E00E949702CA30D105CE
:101890002CF460E381ED92E00E945B03CE01DF91C6
:1018A000CF910C940D0CCF93DF930E9407070E94F9
:1018B0004D07C1EAD2E08A8190E00E940D0C0E949F
:1018C00007070E944D07898190E00E943D0C0E940D
:1018D00007070E944D07888190E00E943D0C66E654
:1018E00071E081ED92E00E9497020E9407070E943A
:1018F0004D078C8190E00E940D0C64E671E081ED53
:1019000092E00E9497020E9407070E944D078D8176
:1019100090E00E940D0C62E671E081ED92E00E9481
:1019200097020E9407070E944D078E8190E08E5417
:10193000984F0E940D0C68E471E081ED92E0DF9118
:10194000CF910C94B80B0F931F93CF93DF93EC01BF
:101950000E9497028C0168E471E0CE010E94B80BEE
:10196000800F911FDF91CF911F910F910895CF9319
:10197000DF93FC014481558141155105C1F09A0165
:101980006417750708F49B01EC0188819981421B5B
:10199000530B5D834C83BC01620F731F0E949C2715
:1019A000E881F9818C819D81E80FF91F1082DF9118
:1019B000CF910895FC0180819181009711F00C94E2
:1019C000CF2060E070E0CB010895CF93DF93DC017E
:1019D00014962D913C911597232B79F0FB01CD9115
:1019E000DC9160817181CE010E94AB27009729F0C4
:1019F0008C1B9D0BDF91CF9108958FEF9FEFFACF56
:101A00000F931F93CF93DF938C01EB01FC01808137
:101A100091810097E1F06881798161157105A9F0E4
:101A2000428153812C813D814217530770F00E94FF
:101A300095278C819D81F801958384831D821C826A
:101A4000DF91CF911F910F9108950E9446208881C8
:101A50009981F801918380838A819B81938382831A
:101A60008C819D8195838483198218821B821A82BE
:101A7000E5CFCF93DF93EC0188819981009711F036
:101A80000E944620198218821D821C821B821A82A3
:101A9000DF91CF910895FC01808191810C944620C3
:101AA0000F931F93CF93DF93EC0188819981009767
:101AB00059F02A813B812617370730F081E0DF910A
:101AC000CF911F910F9108958B016F5F7F4F0E94FF
:101AD000C626009759F0998388831B830A832C813B
:101AE0003D81232B59F7FC011082E8CF80E0E7CF3E
:101AF000EF92FF920F931F93CF93DF93EC017B0143
:101B0000CB010E94FD200097A9F00C811D81080FD8
:101B1000191FB801CE010E94500D882361F0288161
:101B200039818C819D81B701820F931F0E94F6201D
:101B30001D830C8381E0DF91CF911F910F91FF9066
:101B4000EF900895EF92FF920F931F93CF93DF933F
:101B50006115710541F480E0DF91CF911F910F91E4
:101B6000FF90EF90089541155105B1F07B01EC0114
:101B70000C811D81040F151FB8010E94500D882390
:101B800051F3288139818C819D81B701820F931F88
:101B90000E9495271D830C8381E0DECFEF92FF9298
:101BA0000F931F93CF93DF93CDB7DEB72D970FB66B
:101BB000F894DEBF0FBECDBF7C01CB01BA012AE095
:101BC0008E010F5F1F4FA8010E943521F80101907F
:101BD0000020E9F73197AF01401B510BB801C70155
:101BE0000E94A20D2D960FB6F894DEBF0FBECDBF9A
:101BF000DF91CF911F910F91FF90EF900895EF9299
:101C0000FF920F931F93CF93DF9300D000D000D0AB
:101C10001F92CDB7DEB77C01CB014AE08E010F5F8A
:101C20001F4FB8010E945721F80101900020E9F7E9
:101C30003197AF01401B510BB801C7010E94A20DA3
:101C400027960FB6F894DEBF0FBECDBFDF91CF91C0
:101C50001F910F91FF90EF900895EF92FF920F93D5
:101C60001F93CF93DF93CDB7DEB728970FB6F894C5
:101C7000DEBF0FBECDBF7C01CB014AE08E010F5FFE
:101C80001F4FB8010E940621F80101900020E9F7DA
:101C90003197AF01401B510BB801C7010E94A20D43
:101CA00028960FB6F894DEBF0FBECDBFDF91CF915F
:101CB0001F910F91FF90EF900895CF93DF9300D085
:101CC000CDB7DEB769831A8241E050E0BE016F5F95
:101CD0007F4F0E94A20D0F900F90DF91CF9108953A
:101CE000EF92FF920F931F93CF93DF93EC017B0151
:101CF0008A01BA010E94500D81110BC0CE010E94D1
:101D0000390DCE01DF91CF911F910F91FF90EF9090
:101D100008951D830C83B701888199810E949527BE
:101D2000F0CFFB0101900020E9F73197AF01461B8E
:101D3000570B0C94700EFB01DC0111961C921E9245
:101D400013961C921E92129715961C921E9214972F
:101D50008617970749F0608171816115710521F03F
:101D6000448155810C94700E0895FC0111821082FB
:101D70001382128215821482FB0101900020E9F780
:101D80003197AF01461B570B0C94700ECF92DF9228
:101D9000EF92FF920F931F93CF93DF93CDB7DEB7F0
:101DA0002C970FB6F894DEBF0FBECDBF8C017B0120
:101DB0006AE471E00E94B50EB70189E993E00E94E0
:101DC000890268E471E089E993E00E94B80B6AE453
:101DD00071E0CE0107960E94B50E0E9426046B01A9
:101DE0007C0120E1C20E27E2D21EE11CF11C89E930
:101DF00093E00E94C905892B39F40E9426046C15D2
:101E00007D058E059F0598F389E993E00E94C90539
:101E1000892BA9F16AE471E0CE0101960E94B50E0A
:101E20000E94020697FD06C0682FCE0101960E940F
:101E30005D0EF6CFBE016F5F7F4FCE0107960E9409
:101E4000000DCE0101960E944B0DBE01695F7F4FD0
:101E5000C8010E94000DCE0107960E944B0DC801DB
:101E60002C960FB6F894DEBF0FBECDBFDF91CF9199
:101E70001F910F91FF90EF90DF90CF90089565E054
:101E800081ED93E00E940A0962E370E080E090E057
:101E90000E94F3032C9860ED77E080E090E00E94D0
:101EA000F3032C9A61E089E00E94BF0168E775E0C6
:101EB00080E090E00E94F30360E089E00E94BF01AF
:101EC00068E57BE180E090E00E944F081092CC0230
:101ED000459A6FED72E089E993E00E94A30C66E0F9
:101EE00070E0CE0107960E94500D811105C0CE0111
:101EF00007960E94390DA9CF86E090E09C878B87DA
:101F000068ED72E08F8198850E94F6209ECFAF9297
:101F1000BF92CF92DF92EF92FF920F931F93CF93D6
:101F2000DF936C015B017A0189012417350720F4E6
:101F30008F2D7901042F182F6AE471E0C6010E94E9
:101F4000B50ED5011496CD91DC91EC16FD06E0F4AA
:101F50000C171D0708F4E801D501ED91FC911197CC
:101F6000EC0FFD1F108110826D917C916E0D7F1D15
:101F7000C60161157105A1F00E94910EF5018081E5
:101F80009181C80FD91F1883C601DF91CF911F918E
:101F90000F91FF90EF90DF90CF90BF90AF9008959A
:101FA0000E94390DEBCFCF92DF92EF92FF920F9309
:101FB0001F93CF93DF93EB017B0128E0E20EF11C2E
:101FC0008B016C01C61AD70AC601800F911F0E94AF
:101FD000E824F80181938F01EE15FF05A9F7CE01E2
:101FE000DF91CF911F910F91FF90EF90DF90CF90F5
:101FF00008959F92AF92BF92CF92DF92EF92FF929D
:102000000F931F93CF93DF935C017B018B01D0E093
:10201000C0E0F80191908F016501CC0EDD1EC60174
:102020000E94E824981621F0692DC6010E94F02430
:102030002196C830D10569F7C701DF91CF911F9173
:102040000F91FF90EF90DF90CF90BF90AF909F9057
:1020500008950F931F93CF93DF93CDB7DEB72897E3
:102060000FB6F894DEBF0FBECDBF80E89FEFAFEF95
:10207000BFEF89839A83AB83BC8381E093E6A3EFB0
:10208000BFE38D839E83AF83B88710E000E0BE017D
:102090006F5F7F4FC8010E94F90F085F1F4F011546
:1020A00084E01807A1F728960FB6F894DEBF0FBE9C
:1020B000CDBFDF91CF911F910F9108951F920F9285
:1020C0000FB60F9211242F933F934F935F936F930B
:1020D0007F938F939F93AF93BF93EF93FF9381ED84
:1020E00092E00E943903FF91EF91BF91AF919F91D0
:1020F0008F917F916F915F914F913F912F910F90B1
:102100000FBE0F901F9018951F920F920FB60F924F
:1021100011242F938F939F93EF93FF93E091E1020C
:10212000F091E2028081E091E702F091E80282FD05
:102130001BC090818091EA028F5F8F732091EB0228
:10214000821741F0E091EA02F0E0EF52FD4F958FE7
:102150008093EA02FF91EF919F918F912F910F90C1
:102160000FBE0F901F9018958081F4CF1F920F9291
:102170000FB60F9211248F939F93AF93BF938091CB
:10218000CD029091CE02A091CF02B091D0020296E2
:10219000A11DB11D8093CD029093CE02A093CF02DA
:1021A000B093D00280919B0296E0980F9D37F0F497
:1021B00090939B0280919C0290919D02A0919E021F
:1021C000B0919F020196A11DB11D80939C02909336
:1021D0009D02A0939E02B0939F02BF91AF919F91E9
:1021E0008F910F900FBE0F901F9018958757809377
:1021F0009B028091CD029091CE02A091CF02B0912E
:10220000D0020196A11DB11D8093CD029093CE0204
:10221000A093CF02B093D002CDCF1F920F920FB6F2
:102220000F9211242F933F934F935F936F937F935C
:102230008F939F93AF93BF93EF93FF938091B900D8
:10224000887F803609F44AC0F0F5883209F4A5C0C9
:1022500018F5803109F499C0B8F4882309F4F5C061
:10226000883009F492C0FF91EF91BF91AF919F9197
:102270008F917F916F915F914F913F912F910F902F
:102280000FBE0F901F901895883109F486C08032D8
:1022900051F78093740214C0803409F49BC040F459
:1022A0008033B9F38833F9F68093740285ECAEC0BD
:1022B000803509F483C0883509F494C0883499F6D0
:1022C0000E943204D0CF883909F48AC038F58837A3
:1022D00029F050F4883611F0803729F683E0809396
:1022E00075021092730255C0883809F479C080399C
:1022F00019F0803809F0B7CF80917302803208F06E
:102300006FC0E091730281E08E0F80937302809121
:10231000BB00F0E0ED5AFD4F80833BC0803B39F0BD
:10232000D0F4803A09F477C0883A09F09CCF84E071
:10233000809375021092520210925102F0E0E0E098
:1023400009958091510281110FC081E08093510263
:102350001092310209C0803C09F4A8CF883C09F4EE
:10236000A5CF883B09F07FCFE091520281E08E0F2C
:1023700080935202F0E0EF5CFD4F80818093BB00C0
:10238000909152028091510229C080919A028093CB
:10239000BB0085EC8093BC0066CF90919902809140
:1023A0009802981758F5E091990281E08E0F80937A
:1023B0009902F0E0E858FD4F8081E9CFE091990261
:1023C00081E08E0F809399028091BB00F0E0E85885
:1023D000FD4F808390919902809198029817C8F2DE
:1023E00085E8D8CFE091990281E08E0F8093990221
:1023F0008091BB00F0E0E858FD4F80838091770228
:1024000081115ECF81E08093760284EA8093BC00E4
:102410001092750228CF85EC8093BC001092750253
:1024200080917302803230F4E0917302F0E0ED5A53
:10243000FD4F10826091730270E083E592E0F0E05E
:10244000E0E00995109273020ECF1092740238CF1B
:102450001F920F920FB60F9211242F933F934F9319
:102460005F936F937F938F939F93AF93BF93EF93FC
:10247000FF93E091CA02F091CB02309749F0A68514
:10248000B7858585968D91FF14C09C918923A1F411
:10249000FF91EF91BF91AF919F918F917F916F913C
:1024A0005F914F913F912F910F900FBE0F901F9012
:1024B00018959C91892361F7A389B4899C9185899A
:1024C000809589238C93868997890197F1F7608D90
:1024D000718DA685B785558538E020E0CB01019741
:1024E000F1F7822F90E095958795282F4C91452301
:1024F00009F02068315091F7868D81FD20958091FB
:10250000C90290E001968F7399273091C80238175D
:1025100099F0A091C902B0E0A051BE4F2C938093D6
:10252000C902828D938D0197F1F7A389B4898C91AB
:102530009589892B8C93ACCF868D8160868FF1CF66
:102540001F920F920FB60F9211248F9381E0809308
:10255000A0028F910F900FBE0F901F901895CF92F1
:10256000DF92EF92FF928091A9029091AA0224E358
:10257000C22E2EE6D22E28E0E22EF12C853020E16C
:10258000920708F59C012D533F40283C3105A0F0EF
:1025900085579E4030EBC32E39E6D32E36E3E32E2B
:1025A000F12C883C910578F480ECC82E8BEBD82E6A
:1025B0008AE1E82EF12C07C094E1C92E92E0D92ED1
:1025C0009DE0E92EF12C62E370E080E090E00E9453
:1025D000F30380917A008F7780937A0080B78068C8
:1025E00080BF80916400816080936400C701B60160
:1025F0000E944F08809164008E7F809364008091D8
:102600007A00806880937A0080B78F7780BFFF90D0
:10261000EF90DF90CF900895EF92FF920F931F936A
:10262000CF93DF93CDB7DEB764970FB6F894DEBFD4
:102630000FBECDBF7C01CB01BA018E010F5F1F4FD2
:1026400022E044E00E948C1FFC0101900020E9F789
:102650003197AF01481B590BBC01C7010E94A20D65
:1026600064960FB6F894DEBF0FBECDBFDF91CF9159
:102670001F910F91FF90EF9008951092D402109245
:10268000D30248EE53E060E070E04093D5025093EF
:10269000D6026093D7027093D80288E291E09093BB
:1026A000D2028093D10285EC90E09093DE02809379
:1026B000DD0284EC90E09093E0028093DF0280ECF6
:1026C00090E09093E2028093E10281EC90E090939D
:1026D000E4028093E30282EC90E09093E602809320
:1026E000E50286EC90E09093E8028093E702109276
:1026F000EA021092EB021092EC021092ED028AE0D4
:102700008093DF0384E690E09093E9038093E803ED
:1027100022E330E03093EB032093EA03229A2BE08C
:102720002093D1039093DB038093DA039093DD032E
:102730008093DC03239A1092D00310929C03109292
:102740009B0340939D0350939E0360939F0370935C
:10275000A0038AE391E090939A03809399031092E7
:10276000B0031092AF031092B2031092B103109213
:10277000B4031092B3031092B6031092B5036091A4
:10278000B7036E7F6D7F6093B7036695617081E0DC
:10279000682783E00E94BF01539AE5E1F3E0E491EA
:1027A000E093A903E1E0F3E0E491F0E0EE0FFF1F16
:1027B000EC50FD4F859194919093AB038093AA03C5
:1027C00054985C988091B70381FF5C9A84E0809371
:1027D000A503E6E1F3E0E491E093A603E2E0F3E091
:1027E000E491F0E0EE0FFF1FE651FD4F85919491CB
:1027F0009093A8038093A7033C9888B188B9E4E23A
:10280000F3E0E491E0938B03E0E1F3E0E491F0E0A6
:10281000EE0FFF1FE651FD4F8591949190938D032C
:1028200080938C0310929603109298031092970352
:1028300010929503109294031092930310929203B6
:10284000109291031092900310928F0310928E03B6
:1028500010928A0310928903109275038BE893E01B
:1028600090937E0380937D0310927B0310927C03F0
:102870001092740389E08093770381E0809378035A
:102880008093790380937A036AE471E08EE693E0A3
:102890000C94B50ECF93DF93CDB7DEB7E6970FB6A6
:1028A000F894DEBF0FBECDBFF89482E880937A0023
:1028B00083E084BD85BD80916E00816080936E0051
:1028C00081E0809380009BE0909381008093B00032
:1028D00084E08093B1001092C1007894219AE09135
:1028E000E102F091E20282E08083E091DD02F0916A
:1028F000DE021082E091DF02F091E00287E6808341
:102900001092E902E091E502F091E60286E0808310
:10291000E091E302F091E402808180618083E091A4
:10292000E302F091E402808188608083E091E30219
:10293000F091E402808180688083E091E302F0916D
:10294000E40280818F7D80830E944A06249A3D9A0A
:102950003B9A2C9A61E089E00E94BF0168E775E02C
:1029600080E090E00E944F0860E089E00E94BF0193
:1029700061E08FED93E00E940A0961E081ED93E050
:102980000E940A096BE471E081ED92E00E94B80BAD
:1029900068E471E081ED92E00E94B80B6AE070E0BB
:1029A00080E090E00E94F303459A4398E0917D0314
:1029B000F0917E0313861586148612861186108682
:1029C0001782168215821482138210927B03109252
:1029D0007C0311E0BE01615F7F4F80917D03909188
:1029E0007E030E94480A882309F475C067E0CE017F
:1029F0000F960E948D049E898913ECCF80917B03F2
:102A00008F5F80937B038F85883231F008F049C057
:102A1000803111F08232F1F680917C038F5F8093D8
:102A20007C0380917403811128C080917D03909173
:102A30007E030E949B09BE01615F7F4F80917D03F1
:102A400090917E030E94360540E064EB80917D0307
:102A500090917E030E94020580917D0390917E03F8
:102A60000E94A404082F80917D0390917E030E9410
:102A70009B09011102C0109374038F858031E1F02E
:102A8000BE016F5F7F4FCE010F960E94D60988234B
:102A900031F08D818F3391F058F48F31C1F080E0A7
:102AA0000EC08B3309F4B8CF823409F093CFB4CF82
:102AB0008F3579F08F3799F78CE001C08AE09091DB
:102AC0007703981708F086CF8093770383CF89E048
:102AD000F6CF8BE0F4CF109278030E94490B0E944E
:102AE000C80A6093C2027093C3028093C402909399
:102AF000C5021092A0020E94CE036B0180E00E94EA
:102B000046028091A0028823E1F30FB6F894A895BD
:102B100080916000886180936000109260000FBE19
:102B20000E94CE036C197D09709306016093050124
:102B300060E177E280E090E00E94F3036BE671E0F1
:102B4000CE010F960E94B50EBE01615F7F4FCE0190
:102B500001960E94C60EBE016F5F7F4F8EE693E026
:102B60000E94000DCE0101960E944B0DCE010F96E2
:102B70000E944B0DC0906E03D0906F03C114D1041E
:102B800049F000917203109173037601011511054C
:102B900009F04EC08091720390917303892B71F2FA
:102BA00064E871E080916E0390916F030E948C271E
:102BB000892B21F60E9426046093B3027093B4021D
:102BC0008093B5029093B6020E9426046093BD02E2
:102BD0007093BE028093BF029093C0020E9429109E
:102BE0000E94E1087093AA026093A9028E010F5F10
:102BF0001F4F89E993E00E94C905892B09F486C01B
:102C000089E993E00E94C905892B09F44DC089E93F
:102C100093E00E94E105682F8EE693E00E945D0E2E
:102C200061E070E080E090E00E94F303E9CF75017D
:102C300057012FEFA21AB20AD7018C91082E000C6F
:102C4000990B0E94A823892B91F7015011090C0DB3
:102C50001D1DF8018081082E000C990B0E94A823ED
:102C6000892B31F00E151F0518F001501109F1CF15
:102C7000A8014F5F5F4F4E195F0950937303409354
:102C80007203CE14DF0420F4B701C6010E9483272B
:102C9000E0916E03F0916F03809172039091730342
:102CA000E80FF91F108276CF6EE671E0C8010E942E
:102CB000B50EB8018EE693E00E94E50C97FD06C0C4
:102CC000FF24F3948091CC02823009F0F12CC801EA
:102CD0000E944B0DFF2009F4B4C16FEC72E089E94A
:102CE00093E00E94A30C64E670E080E090E00E9414
:102CF000F30383E08093CC028EE693E00E94390DCB
:102D00006AE471E08EE693E00E94910E0E94260430
:102D1000AB01BC018091B3029091B402A091B502C5
:102D2000B091B6028052914DAF4FBF4F84179507B7
:102D3000A607B70708F05CC70E94490B60E273E082
:102D400080E090E00E94F3030E94C80A6B017C01BE
:102D5000C092C202D092C302E092C402F092C502B5
:102D600062E370E080E090E00E94F30320E030E056
:102D70004AEA52E4C701B6010E94C12387FFB3C5E6
:102D800020E030E048E452ECC701B6010E9464261E
:102D900018160CF0A8C520E030E04AE754E4C7015B
:102DA000B6010E9427240E942E266093AB027093E6
:102DB000AC028093AD029093AE020E94070760536D
:102DC0007A42810991096093AF027093B0028093B7
:102DD000B1029093B20261E08FED93E00E940A0984
:102DE0008091CC02823008F0A5C66AE471E0CE0181
:102DF00047960E94B50E66E971E0CE010F960E94DB
:102E0000B50EBE01615F7F4FCE0101960E94C60ED6
:102E1000BE016F5F7F4FCE0147960E94000DCE012D
:102E200001960E944B0DCE010F960E944B0D6AE059
:102E300070E0CE0147960E94B70C22E030E050E0EF
:102E400040E0BE01695E7F4FCE0101960E94870F70
:102E5000CE0101960E94DA0C6B01CE0101960E9410
:102E60004B0D63E070E0CE0147960E94B70C22E064
:102E700030E050E040E0BE01695E7F4FCE01019638
:102E80000E94870FCE0101960E94DA0C262ECE01F9
:102E900001960E944B0D63E070E0CE0147960E94C0
:102EA000B70C22E030E050E040E0BE01695E7F4FA9
:102EB000CE0101960E94870FCE0101960E94DA0C86
:102EC0006FA7CE0101960E944B0D63E070E0CE012A
:102ED00047960E94B70C22E030E050E040E0BE018F
:102EE000695E7F4FCE0101960E94870FCE01019649
:102EF0000E94DA0C68ABCE0101960E944B0D63E094
:102F000070E0CE0147960E94B70C22E030E050E01E
:102F100040E0BE01695E7F4FCE0101960E94870F9F
:102F2000CE0101960E94DA0C69ABCE0101960E9497
:102F30004B0D63E070E0CE0147960E94B70C22E093
:102F400030E050E040E0BE01695E7F4FCE01019667
:102F50000E94870FCE0101960E94DA0C6AABCE0167
:102F600001960E944B0D0E9407072B013C0194E93A
:102F7000C91698EFD9060CF4BAC4AEE1CA0ED11C3A
:102F8000C092A7022092A602EFA5E093A502F8A99D
:102F9000F093A30229A92093A2023AA93093A10297
:102FA000AC2DB0E020E833E341EE51E00E94FE2476
:102FB0004B015C0122EB37E0DD24C901825B9740C5
:102FC0008C159D050CF498C48EE4C81A88EFD80AB5
:102FD000C60164E670E00E946E269CAB8BABC60116
:102FE00060E971E00E946E269EAB8DAB82E1E82E17
:102FF00081E0F82EE1E0F0E0312C93E0C922DD24FD
:10300000E215F3050CF0A4C4E230F10509F091C417
:10301000C114D10409F08DC42BA93CA9232B29F498
:103020008DA99EA9892B09F084C490E8890E9BE3A1
:10303000991E96E2A91EB11C3196BFEFEB1AFB0A4E
:10304000DFCF66E771E0C8010E94B50EB8018EE6D9
:1030500093E00E94E50C97FD07C0FF24F394809154
:10306000CC02833009F0F12CC8010E944B0DFF20E7
:1030700071F064EC72E089E993E00E94A30C64E6CD
:1030800070E080E090E00E94F30384E033CE64E8D7
:1030900071E0C8010E94B50EB8018EE693E00E946F
:1030A000E50C97FD07C0FF24F3948091CC02843097
:1030B00009F0F12CC8010E944B0DFF2071F06EEA5F
:1030C00072E089E993E00E94A30C64E670E080E07E
:1030D00090E00E94F30385E00DCE64E871E0C80142
:1030E0000E94B50EB8018EE693E00E94E50C97FDB4
:1030F00007C0FF24F3948091CC02853009F0F12CB5
:10310000C8010E944B0DFF2071F065EA72E089E969
:1031100093E00E94A30C64E670E080E090E00E94DF
:10312000F30386E0E7CD64E871E0C8010E94B50EC4
:10313000B8018EE693E00E94E50C97FD07C0FF24DE
:10314000F3948091CC02863009F0F12CC8010E94E2
:103150004B0DFF2071F06CE972E089E993E00E9469
:10316000A30C64E670E080E090E00E94F30387E047
:10317000C1CD6AE771E0C8010E94B50EB8018EE6C4
:1031800093E00E94E50C97FD07C0FF24F394809123
:10319000CC02873009F0F12CC8010E944B0DFF20B2
:1031A00081F065E772E089E993E00E94A30C64E690
:1031B00070E080E090E00E94F303F8E0F093CC022E
:1031C0009BCD6CE771E0C8010E94B50EB8018EE698
:1031D00093E00E94E50C97FD07C0FF24F3948091D3
:1031E000CC02883009F0F12CC8010E944B0DFF2061
:1031F00071F06AE672E089E993E00E94A30C64E64C
:1032000070E080E090E00E94F30389E073CD67E80E
:1032100071E0C8010E94B50EB8018EE693E00E94ED
:10322000E50C97FD07C0FF24F3948091CC02893010
:1032300009F0F12CC8010E944B0DFF2009F4A6C132
:103240000E946B099093C7028093C60262E370E00C
:1032500080E090E00E94F3036BE471E089E993E081
:103260000E94B80B6AE471E0CE010F960E94B50E81
:10327000B80190E080E00E94D30F69817A818B8150
:103280009C810E94C82320E030E040E053EC0E9483
:10329000C123882309F478C0D12CC12CF12CE12C56
:1032A000B801C7010E94D30F69817A818B819C810B
:1032B0000E94C82320E030E040E053EC0E94C1238C
:1032C000882359F16AE871E0CE010F960E94780DCB
:1032D00069817A818B819C810E94C82320E030E043
:1032E0004AE754E40E94BC25AB01BC01CE010F9615
:1032F0000E940C1341E050E069E871E0CE010F96A6
:103300000E94A20D4D815E816F817885CE010F965E
:103310000E94CE0D2FEFC21AD20A38E2C316D10492
:1033200079F4BE01615F7F4F89E993E00E948902D1
:103330006AE471E0CE010F960E94910ED12CC12C4F
:1033400088E0E80EF11CE11494E0F90609F0A8CF3A
:103350008F859889892B39F0BE01615F7F4F89E99C
:1033600093E00E94890293E0E92EF12C63E081ED65
:1033700093E00E940A0961E08FED93E00E940A0940
:10338000A1E0EA1AF10891F7CE010F960E944B0DC9
:103390006AE471E0C8010E94B50EC090C202D090EC
:1033A000C302E090C402F090C50220E030E04AEA97
:1033B00052E4C701B6010E94C12387FF1AC020E072
:1033C00030E048E452ECC701B6010E9464261816AA
:1033D00084F461E672E0C8010E94780D4091C20257
:1033E0005091C3026091C4027091C502C8010E944D
:1033F0000C1369E572E0C8010E94780D0E94E10893
:10340000AB01F090D003EF2DF0E0DF01AA0FBB1F5E
:103410009D0128543C4F6901D9016D937C93BAE01A
:10342000BF1500F19F01220F331F26543C4FD901D5
:103430002D913C91241735079CF4F601B3E0EE3C46
:10344000FB0789F121913191408151814217530746
:10345000ACF7DF0112974D935C9331832083EECF5D
:10346000FF2009F1DF01AA0FBB1FAA54BC4F2D9109
:103470003C9142175307BCF4EE0FFF1FE854FC4F7A
:1034800020813181DF015E914E91241735072CF4A4
:103490005183408311963C932E93FD0128EB33E03A
:1034A0002A173B0769F781E08F0D8C3008F06BC05D
:1034B0008093D0036091C4037091C503C8010E943A
:1034C0002D0E8091C1028F58833468F462E572E05A
:1034D000C8010E94780D6091C102062E000C770B86
:1034E000C8010E942D0E68E472E0CE0101960E9490
:1034F000780D0E942604C090BD02D090BE02E090DC
:10350000BF02F090C002AB01BC014C195D096E090D
:103510007F09CE0101960E94CE0D6FE372E0CE01CD
:1035200001960E94780D6091BB027091BC02CE01A1
:1035300001960E94FF0D64E372E0CE0101960E94A5
:10354000780D6091C6027091C702CE0101960E946B
:10355000FF0D60E372E0CE0101960E94780D6AE1F2
:10356000CE0101960E945D0EBE016F5F7F4F89E91B
:1035700093E00E9489028AE08093CC02CE010196FA
:103580000E944B0DB9CB1092D00394CF64E871E048
:10359000C8010E94B50EB8018EE693E00E94E50CCA
:1035A00097FD07C0FF24F3948091CC028A3009F084
:1035B000F12CC8010E944B0DFF2009F4F8C065E210
:1035C00072E089E993E00E9497026AE471E0CE011B
:1035D0000F960E94B50E6BE471E081ED92E00E94BF
:1035E000B80B68E471E081ED92E00E94B80B6CE1E9
:1035F00072E0CE010F960E94780D4091C202509168
:10360000C3026091C4027091C502CE010F960E9460
:103610000C1364E172E0CE010F960E94780D0E94B7
:10362000E1082AE0A8010E941121F8010190002080
:10363000E9F73197AF01401B510BB801CE010F964E
:103640000E94A20D8091C1028F58833478F46DE0FE
:1036500072E0CE010F960E94780D6091C102062E95
:10366000000C770BCE010F960E942D0E64E072E0E5
:10367000CE010F960E94780DBE01615F7F4F81EDF4
:1036800092E00E9489026091BB027091BC0290E0BE
:1036900080E04AE00E94C70B68E471E081ED92E0AF
:1036A0000E94B80BCE010F960E944B0D0E9426047B
:1036B0006093BD027093BE028093BF029093C002DC
:1036C00045982C9863E08FED93E00E940A090E94D0
:1036D00029101092BA021092B9021092B8021092F8
:1036E000B7020E94530C62E370E080E090E00E9419
:1036F000F3036CEF71E081ED92E00E94A30C109255
:10370000CC0266E970E080E090E00E94F30389E972
:1037100093E00E94340662E370E080E090E00E9453
:10372000F3030E94AF120E944A0662E370E080E059
:1037300090E00E94F303459A43982C9A61E089E057
:103740000E94BF0168E775E080E090E00E944F08AA
:1037500060E089E00E94BF0168E873E180E090E0EA
:103760000E94F3030E9426046093B3027093B40294
:103770008093B5029093B6028091BB029091BC02F7
:1037800001969093BC028093BB026BE671E0CE0180
:103790000F960E94B50EBE01615F7F4FC8010E9467
:1037A000C60EC8010E944B0DCE010F96E9CEE090E7
:1037B000B702F090B80235E0E316F1040CF473C0E0
:1037C0008091CC028250883008F06DC06BEA72E0C4
:1037D0008091B9029091BA020E94F90F65E081EDE3
:1037E00093E00E940A098091B9029091BA0208966A
:1037F0009093BA028093B9020E94530C62E370E086
:1038000080E090E00E94F30361EF71E081ED92E0CF
:103810000E94A30C1092CC0262E370E080E090E082
:103820000E94F3036BE871E0CE010F960E94B50E83
:10383000BE01615F7F4FC8010E94C60EC8010E9491
:103840004B0DCE010F960E944B0D66E970E080E0B3
:1038500090E00E94F30345982C9862E370E080E0CA
:1038600090E00E94F3030E94AF12459A439866E9E4
:1038700070E080E090E00E944F082C9A68E873E1C5
:1038800080E090E00E94F3030E9426046093B3025C
:103890007093B4028093B5029093B6021092B8026E
:1038A0001092B70272CF62E370E080E090E00E9475
:1038B000F30362E370E080E090E00E94F30362E3D0
:1038C00070E080E090E00E94F30362E370E080E04B
:1038D00090E00E94F3038FEFE81AF80AF092B80222
:1038E000E092B70209CA61E081ED93E077CAB2E1E4
:1038F000CB1AB8EFDB0A44CBC90183709927892B17
:10390000A9F4C90164E670E00E946E26892B39F49F
:10391000C90160E971E00E946E26892B39F4A0E8A4
:103920008A0EA1E59A1EA1E0AA1EB11C2F5F3F4F8F
:1039300044CBD7018C91A82FB0E020E831E541E0DD
:1039400050E00E94FE24860E971EA81EB91E74CB5E
:10395000E8A92E2F30E0A0E1BEE00E9440256B01D7
:103960007C01F9A92F2F30E0ACE3B0E00E944025A4
:10397000C60ED71EE81EF91E2AA9C20ED11CE11CD4
:10398000F11C8FA58150990BDC0120E831E541E065
:1039900050E00E94A4266C0D7D1D8E1D9F1D680D9C
:1039A000791D8A1D9B1D0E94E2068091B7029091AD
:1039B000B80287709927892B79F00E940707641550
:1039C00075058605970520F00E9407072B013C012D
:1039D000C301B2010E94E206CE0147960E944B0D40
:1039E00064E670E080E090E00E94F3030E94E1084A
:1039F0007093AA026093A90264E670E080E090E010
:103A00000E94F3036AE471E0CE0147960E94B50E6E
:103A10006FE971E0CE010F960E94B50EBE01615FA5
:103A20007F4FCE0101960E94C60EBE016F5F7F4F91
:103A3000CE0147960E94000DCE0101960E944B0DCB
:103A4000CE010F960E944B0D66EA71E0CE01019601
:103A50000E94B50EBE016F5F7F4FCE0147960E9458
:103A6000E50C7C01CE0101960E944B0DF7FCD0CFF6
:103A700062E370E080E090E00E94F3032AE030E02F
:103A800048E050E0BE01695E7F4FCE0101960E9482
:103A9000870FBE016F5F7F4FCE0147960E94000DDA
:103AA000CE0101960E944B0D62E370E080E090E051
:103AB0000E94F303CE0147960E94DA0CF62E62E3D1
:103AC00070E080E090E00E94F303CE0147960E94F0
:103AD0004B0D8F2D880F82578093C10268EC70E0E8
:103AE00080E090E00E94F30366ED71E081ED92E0EA
:103AF0000E9497028091C102082E000C990B0E942F
:103B00000D0C67EC71E081ED92E00E9497026091EC
:103B1000A9027091AA0290E080E04AE00E94C70BDF
:103B200066EB71E081ED92E00E9497020E946B09C2
:103B30000E940D0C6AEA71E081ED92E00E9497020A
:103B4000C090C202D090C302E090C402F090C502BF
:103B5000A7019601C701B6010E9469266BEA71E0D0
:103B600081111BC046015701E894B7F82FEF3FEFD2
:103B70004FE75FE7C501B4010E946926811141C189
:103B80002FEF3FEF4FE75FE7C501B4010E94C1236C
:103B900018160CF036C16FEA71E081ED92E00E94D8
:103BA000B80B6EE971E081ED92E00E9497020E94ED
:103BB000530C8091A80281508D3F09F499C18093E4
:103BC000A8028091CC02813049F463E971E089E96F
:103BD00093E00E94A30C82E08093CC020E94260412
:103BE0006093B3027093B4028093B5029093B602CF
:103BF0008091A9029091AA028A379D4008F0F1C0F5
:103C00000E94530C62E370E080E090E00E94F303B6
:103C10006BE471E0CE0183960E94B50E67EB71E014
:103C2000CE0189960E94B50E64EC71E0CE010F962C
:103C30000E94B50EBE01615F7F4FC8010E94C60E93
:103C4000C8010E944B0DCE010F960E944B0D61EDF5
:103C500071E0CE0147960E94B50E4DA55EA569A5FF
:103C60007AA5CE0147960E94A20D811104C0CE0113
:103C700047960E94390D42E050E06BED71E0CE01B5
:103C800047960E94A20D811104C0CE0147960E9462
:103C9000390DBE01695E7F4FCE010F960E949B0ECB
:103CA000BE01615F7F4FCE0101960E94C60ECE011C
:103CB00001960E944B0DCE010F960E944B0DCE0136
:103CC00047960E944B0D188E1F8A1A8E198E1C8ED5
:103CD0001B8E8AE189831A82BE016F5F7F4FCE01FE
:103CE00047960E94910EBE016D5D7F4FCE014D96AD
:103CF0000E949B0E42E050E068E471E0CE014D96D8
:103D00000E94A20D811104C0CE014D960E94390D72
:103D10004B8D5C8D6F89788DCE014D960E94A20DE2
:103D2000811104C0CE014D960E94390DBE01635E23
:103D30007F4FCE010F960E949B0EBE01615F7F4FA9
:103D4000CE0101960E94C60ECE0101960E944B0D37
:103D5000CE010F960E944B0DCE014D960E944B0D49
:103D6000CE0147960E944B0D60E375E780E090E03E
:103D70000E94F303CE0189960E944B0DCE018396DB
:103D80000E944B0D64E670E080E090E00E94F30337
:103D900063EE71E081ED92E00E94970264EF71E0C2
:103DA00080E090E00E94F3032C98459880917A007F
:103DB0008F7780937A0080B7806880BF809164009D
:103DC0008FEF8093640081E0809301018091040172
:103DD0008D7F11F00E9446088AE00E945E020E94D8
:103DE0003702E0E0F0E0EF2B11F40C94F9150E949B
:103DF0002503882311F40C94F9150E9400000C94FB
:103E0000F9152FEF3FEF4FE75FE4C701B6010E94BE
:103E1000642618161CF463EB71E0BFCE2FEF3FEF62
:103E20004FE75FECC701B6010E94C12387FDF3CFC6
:103E300020E030E0A901C701B6010E94C12387FF3D
:103E400009C06DE281ED92E00E945B03F7FAF09405
:103E5000F7F8F0942AE037ED43EA5BE3C701B601D7
:103E60000E9450254B015C010E9435266B017C01AC
:103E70000E94C6239B01AC01C501B4010E944F25DD
:103E80004B015C014AE0C701B6010E94C70B6EE21C
:103E900081ED92E00E945B0320E030E040E251E4DB
:103EA000C501B4010E9427244B015C010E94352604
:103EB0006B01F12CE12C4AE0C701B6010E94C70B4F
:103EC000C701B6010E94C6239B01AC01C501B40124
:103ED0000E944F2520E030E040E251E40E94272478
:103EE0000E94352690E080E04AE00E94C70B59CE40
:103EF0001092A80281E08093CC0263CE8EE693E01C
:103F00000E944B0D8AE391E090939A03809399036A
:103F100089E993E00C943406EF920F931F93CF93AB
:103F2000DF93E80134E047FD34E1042E000C550B2B
:103F300057FF03C0519541955109E32E022F242FBD
:103F4000AE010E947121CE01DF91CF911F910F919F
:103F5000EF9008950F931F93CF93DF9382309105D5
:103F600010F482E090E0E091EF03F091F00330E094
:103F700020E0B0E0A0E0309799F42115310509F474
:103F80004AC0281B390B24303105D8F58A819B8122
:103F90006115710589F1FB0193838283FE0111C0D4
:103FA000408151810281138148175907E0F0481779
:103FB000590799F4109761F012960C931297139683
:103FC0001C933296CF01DF91CF911F910F910895ED
:103FD0000093EF031093F003F4CF2115310551F056
:103FE0004217530738F0A901DB019A01BD01DF0137
:103FF000F801C1CFEF01F9CF9093F0038093EF0365
:10400000CDCFFE01E20FF31F81939193225031092E
:1040100039832883D7CF2091ED033091EE03232BF2
:1040200041F420910E0130910F013093EE03209363
:10403000ED0320910C0130910D012115310541F462
:104040002DB73EB74091100150911101241B350B43
:10405000E091ED03F091EE03E217F307A0F42E1BBD
:104060003F0B2817390778F0AC014E5F5F4F2417DC
:10407000350748F04E0F5F1F5093EE034093ED035A
:10408000819391939FCFF0E0E0E09CCFCF93DF93BB
:104090000097E9F0FC01329713821282A091EF039E
:1040A000B091F003ED0130E020E01097A1F4208101
:1040B0003181820F931F2091ED033091EE03281779
:1040C000390709F061C0F093EE03E093ED03DF914F
:1040D000CF910895EA01CE17DF07E8F54A815B81A9
:1040E0009E0141155105B1F7E901FB83EA8349912E
:1040F0005991C40FD51FEC17FD0761F480819181A0
:104100000296840F951FE9019983888382819381A8
:104110009B838A83F0E0E0E012968D919C91139747
:104120000097B9F52D913C911197CD010296820F20
:10413000931F2091ED033091EE032817390739F6CC
:10414000309751F51092F0031092EF03B093EE0305
:10415000A093ED03BCCFD383C28340815181840FF0
:10416000951FC817D90761F44E5F5F4F8881998109
:10417000480F591F518340838A819B819383828397
:104180002115310509F0B0CFF093F003E093EF0370
:104190009ECFFD01DC01C0CF13821282D7CF1F93C7
:1041A000FC0199278827BC01E89411911032E9F3AA
:1041B000193010F01E30C8F31B3251F01D3249F493
:1041C000689406C00E942021610F711D811D911D00
:1041D000119110531A30B0F33EF49095809570957C
:1041E00061957F4F8F4F9F4F1F910895FB01DC0119
:1041F00005900D920020E1F70895FC010590002044
:10420000E9F7809590958E0F9F1F0895BB274A3040
:1042100031F4992322F4BDE2909581959F4F0C943F
:104220005821BB272A3051F4992342F4BDE29095DE
:104230008095709561957F4F8F4F9F4F0C943621DD
:10424000592F482F372F262F660F771F881F991F4A
:10425000660F771F881F991F620F731F841F951F9A
:10426000660F771F881F991F0895BB27FA01A62F95
:104270006217710581059105330B30FB66F0AA27A3
:10428000660F771F881F991FAA1FA21710F0A21B85
:1042900063953850A9F7A05DAA3308F0A95DA193F2
:1042A00036F7B111B1931082CA010C94B123BB2728
:1042B000FB015527AA27880F991FAA1FA41710F0E2
:1042C000A41B83955051B9F7A05DAA3308F0A95DEE
:1042D000A193009779F7B111B1931192CB010C948E
:1042E000B123A9E0B0E0E7E7F1E20C940F256A0101
:1042F000F22EB02E102FFBE3AF2EA01608F41BE316
:104300001F5F012F27E0AE014F5F5F4F0E94D02259
:10431000BC018981982F9970913009F43FC09BE2CC
:10432000E1FC04C09E2D9170E0FC3AC05E2D5071FE
:10433000E82FE87083FF46C084E0911101C083E05C
:10434000EF2DE81B8F1508F0E0E0D6018E2F20E25C
:10435000552351F1992329F0D6019C93C60101966A
:104360006C0196012D5F3F4FE2FE24C08EE4D60122
:104370008C9391E411969C93119712968C93D9018A
:104380008E2F90E281111BC0E20FF32FF11D1082DE
:104390008EEF9FEF2996ECE00C942B259DE2C6CF83
:1043A00090E2C4CF2D9381508111FCCFCE0ED11C51
:1043B000E0E0D0CF8EE6D6018C9391E6DBCF9D93E3
:1043C0008150E0CF482F447082FF3DC084E09111BE
:1043D00001C083E08F1510F4EF2DE81BD6018E2F5E
:1043E00020E2552309F1992329F0D6019C93C601B7
:1043F00001966C0196012D5F3F4FE2FE1BC089E4E0
:10440000D6018C938EE411968C93119786E41296C4
:104410008C93D9018E2F90E2882309F4B5CF9D9318
:104420008150FACF2D9381508111FCCFCE0ED11C3B
:10443000E0E0D9CF89E6D6018C938EE611968C9375
:10444000119786E6E4CF9B0177FF02C030E020E0C1
:10445000A1E0B0E0911102C0B0E0A0E0F901319616
:10446000AE0FBF1F8B2C912CBB2009F461C05401EF
:10447000EFEFAE1ABE0AAA0DBB1DFA161B0619F005
:1044800014F04F2D4A1B511188C0E3FC59C076012E
:10449000A42FB0E2A1114FC0C40ED11C992309F47E
:1044A0005BC040E0D6011196F60190836D01552363
:1044B00009F448C0012F060F9A81582F507184FFCC
:1044C00003C0913309F4015010160CF047C00930B5
:1044D00008F008E0EEE2FE2E5B01A01AB1088501AB
:1044E0009194819491082F3F320729F4D601FC92D0
:1044F000F60131966F016217730794F102171307E3
:104500007CF5DB01A21BB30BAA24A394B12CAC0E47
:10451000BD1EAA0DBB1D11968C9121503109D601EB
:10452000119628153905F4F0F60180836D01DBCF73
:10453000B12CA12CA0CFF701B1937F01A150AACF3C
:104540009111B0CFD601942F50E302C05D939150EA
:104550009111FCCFC40ED11C40E0ACCF01E0BACF2A
:1045600080E3DBCF6217730731F4963388F4953319
:1045700011F4552369F0F6018083FD01842F90E248
:10458000811108C0A40FB11D1C9290E080E002CF01
:1045900081E3F1CF91938150F3CF911183CF8ACFF3
:1045A000283008F027E03327DA01990F311D87FD05
:1045B000916000966105710539F432602E5F3D937C
:1045C00030E32A95E1F708959F3F30F08038710578
:1045D000610509F03C5F3C5F3D93913008F08068D5
:1045E000911DDF93CF931F930F93FF92EF92192F9B
:1045F000987F9695E92F96959695E90FFF27EE53AC
:10460000FF4F99273327EE24FF24A701E7010590E8
:104610000894079428F4360FE71EF81E491F511D11
:10462000660F771F881F991F0694A1F705900794BE
:1046300028F4E70EF81E491F561FC11D770F881F6B
:10464000991F661F0694A1F70590079428F4F80EA9
:10465000491F561FC71FD11D880F991F661F771F3F
:104660000694A1F70590079420F4490F561FC71F21
:10467000D81F990F661F771F881F0694A9F784918A
:104680001095177041F0D695C79557954795F794B3
:10469000E7941A95C1F7E8E6F0E068941590159153
:1046A00035916591959105907FE27395E118F10A36
:1046B000430B560BC90BD009C0F7E10CF11E431F89
:1046C000561FC91FD01D7EF4703311F48A95E6CFB2
:1046D000E894015030F0080F0AF40027021708F49C
:1046E000202F2395022F7A3328F079E37D932A95A2
:1046F000E9F710C07D932A9589F6069497956795FA
:10470000379517951794E118F10A430B560BC90B0F
:10471000D00998F023957E9173957A3308F070E371
:104720007C932013B8F77E9170617D9330F0839570
:1047300071E37D9370E32A95E1F71124EF90FF90E8
:104740000F911F91CF91DF91992787FD9095089543
:1047500091110C949424803219F089508550C8F737
:104760000895DC01FC01672F71917723E1F73297FF
:1047700004C07C916D9370836291AE17BF07C8F33C
:1047800008950E94032408F481E00895E89409C084
:1047900097FB3EF490958095709561957F4F8F4F74
:1047A0009F4F9923A9F0F92F96E9BB279395F6958A
:1047B000879577956795B795F111F8CFFAF4BB0F08
:1047C00011F460FF1BC06F5F7F4F8F4F9F4F16C06C
:1047D000882311F096E911C0772321F09EE8872FF6
:1047E000762F05C0662371F096E8862F70E060E0B2
:1047F0002AF09A95660F771F881FDAF7880F96952B
:10480000879597F90895990F0008550FAA0BE0E8CE
:10481000FEEF16161706E807F907C0F01216130682
:10482000E407F50798F0621B730B840B950B39F4C2
:104830000A2661F0232B242B252B21F408950A2628
:1048400009F4A140A6958FEF811D811D08950E9456
:104850003A240C94AE240E94A02438F00E94A7248D
:1048600020F0952311F00C9497240C949D2411248E
:104870000C94E2240E94BF2470F3959FC1F3950F1E
:1048800050E0551F629FF001729FBB27F00DB11DD4
:10489000639FAA27F00DB11DAA1F649F6627B00D64
:1048A000A11D661F829F2227B00DA11D621F739F4D
:1048B000B00DA11D621F839FA00D611D221F749F5B
:1048C0003327A00D611D231F849F600D211D822FA2
:1048D000762F6A2F11249F5750409AF0F1F08823C9
:1048E0004AF0EE0FFF1FBB1F661F771F881F9150F6
:1048F0005040A9F79E3F510580F00C9497240C94EA
:10490000E2245F3FE4F3983ED4F38695779567956C
:10491000B795F795E7959F5FC1F7FE2B880F911D1F
:104920009695879597F9089599278827089597F977
:104930009F6780E870E060E008959FEF80EC089545
:1049400000240A941616170618060906089500246E
:104950000A9412161306140605060895092E0394E8
:10496000000C11F4882352F0BB0F40F4BF2B11F45C
:1049700060FF04C06F5F7F4F8F4F9F4F089557FDBB
:104980009058440F551F59F05F3F71F04795880FBD
:1049900097FB991F61F09F3F79F087950895121654
:1049A00013061406551FF2CF4695F1DF08C0161600
:1049B00017061806991FF1CF8695710561050894B1
:1049C0000895E894BB2766277727CB0197F90895C8
:1049D000F999FECF92BD81BDF89A992780B50895C7
:1049E000262FF999FECF1FBA92BD81BD20BD0FB60B
:1049F000F894FA9AF99A0FBE019608950E944025FC
:104A0000A59F900DB49F900DA49F800D911D112422
:104A100008952F923F924F925F926F927F928F9262
:104A20009F92AF92BF92CF92DF92EF92FF920F933D
:104A30001F93CF93DF93CDB7DEB7CA1BDB0B0FB647
:104A4000F894DEBF0FBECDBF09942A883988488804
:104A50005F846E847D848C849B84AA84B984C8849A
:104A6000DF80EE80FD800C811B81AA81B981CE0F91
:104A7000D11D0FB6F894DEBF0FBECDBFED01089576
:104A8000A29FB001B39FC001A39F700D811D11248F
:104A9000911DB29F700D811D1124911D08955058D4
:104AA000BB27AA270E9467250C94AE240E94A0244D
:104AB00038F00E94A72420F039F49F3F19F426F41F
:104AC0000C949D240EF4E095E7FB0C949724E92FB9
:104AD0000E94BF2458F3BA1762077307840795072B
:104AE00020F079F4A6F50C94E1240EF4E0950B2E59
:104AF000BA2FA02D0B01B90190010C01CA01A00130
:104B00001124FF27591B99F0593F50F4503E68F18A
:104B10001A16F040A22F232F342F4427585FF3CFCB
:104B2000469537952795A795F0405395C9F77EF49C
:104B30001F16BA0B620B730B840BBAF09150A1F0E5
:104B4000FF0FBB1F661F771F881FC2F70EC0BA0F6B
:104B5000621F731F841F48F4879577956795B795F3
:104B6000F7959E3F08F0B0CF9395880F08F09927EE
:104B7000EE0F9795879508950E94D0250C94AE244A
:104B80000E94A72458F00E94A02440F029F45F3F1F
:104B900029F00C94972451110C94E2240C949D2438
:104BA0000E94BF2468F39923B1F3552391F3951B19
:104BB000550BBB27AA2762177307840738F09F5F3E
:104BC0005F4F220F331F441FAA1FA9F335D00E2EAB
:104BD0003AF0E0E832D091505040E695001CCAF718
:104BE0002BD0FE2F29D0660F771F881FBB1F2617DB
:104BF00037074807AB07B0E809F0BB0B802DBF01B2
:104C0000FF2793585F4F3AF09E3F510578F00C9480
:104C100097240C94E2245F3FE4F3983ED4F3869506
:104C200077956795B795F7959F5FC9F7880F911DA1
:104C30009695879597F90895E1E0660F771F881F8D
:104C4000BB1F621773078407BA0720F0621B730B40
:104C5000840BBA0BEE1F88F7E09508950E94352665
:104C60006894B1110C94E22408950E94C72488F03E
:104C70009F5798F0B92F9927B751B0F0E1F0660F20
:104C8000771F881F991F1AF0BA95C9F714C0B13061
:104C900091F00E94E124B1E008950C94E124672F83
:104CA000782F8827B85F39F0B93FCCF38695779590
:104CB0006795B395D9F73EF4909580957095619579
:104CC0007F4F8F4F9F4F08950E94032408F48FEF6A
:104CD00008950E940324880B990B089597FB072ED3
:104CE00016F4009407D077FD09D00E94AC2607FC8B
:104CF00005D03EF4909581959F4F089570956195EC
:104D00007F4F0895A1E21A2EAA1BBB1BFD010DC007
:104D1000AA1FBB1FEE1FFF1FA217B307E407F5076B
:104D200020F0A21BB30BE40BF50B661F771F881F47
:104D3000991F1A9469F760957095809590959B01DD
:104D4000AC01BD01CF010895B7FF0C94FE240E9471
:104D5000FE24821B930B0895AA1BBB1B51E107C0C5
:104D6000AA1FBB1FA617B70710F0A61BB70B881FFB
:104D7000991F5A95A9F780959095BC01CD0108958A
:104D8000EE0FFF1F0590F491E02D0994B0E0A0E034
:104D9000ECECF6E20C940B258C01009751F4CB015E
:104DA0000E94AA1F8C01C801CDB7DEB7E0E10C94C8
:104DB0002725FC01E60FF71F9C0122503109E2175D
:104DC000F30708F49DC0D901CD91DC911197C61766
:104DD000D70798F0C530D10530F3CE010497861778
:104DE000970708F3C61BD70B2297C193D1936D93F6
:104DF0007C93CF010E944620D6CF5B01AC1ABD0A3E
:104E00004C018C0E9D1EA091EF03B091F003512C2C
:104E1000412CF12CE12C109731F58091ED0390910C
:104E2000EE038815990509F05CC04616570608F090
:104E300058C080910C0190910D01009741F48DB7FD
:104E40009EB74091100150911101841B950BE817FA
:104E5000F90708F055C0F093EE03E093ED03F90174
:104E600071836083A0CF8D919C91119712966C9065
:104E7000129713967C901397A815B90559F56C01F4
:104E800042E0C40ED11CCA14DB0420F1AC014A1963
:104E90005B09DA011296159780F062827382518362
:104EA0004083D9016D937C93E114F10471F0D70133
:104EB0001396FC93EE93129776CF22968C0F9D1F3C
:104EC000F90191838083F301EFCFF093F003E09336
:104ED000EF0369CF4816590608F42C017D01D30170
:104EE0009ACFCB010E94AA1F7C01009749F0AE0126
:104EF000B8010E948327C8010E944620870153CF32
:104F000010E000E050CFFB01DC0102C001900D92E7
:104F100041505040D8F70895FB01DC018D9101907C
:104F200080190110D9F3990B0895FB01DC01019060
:104F30000D920020E1F70895FB01DC014150504043
:104F400048F001900D920020C9F701C01D92415018
:104F50005040E0F70895FB0151915523A9F0BF019E
:104F6000DC014D9145174111E1F759F4CD01019054
:104F7000002049F04D9140154111C9F3FB01411149
:104F8000EFCF81E090E00197089511E0C4E9D1E00E
:104F900004C0FE010E94C0262196C539D107C9F779
:044FA000F894FFCFB3
:104FA4000000010002803E80000000030000F103C5
:104FB40080001F1C1F1E1F1E1F1F1E1F1E1F5E00A2
:104FC400BC007701000000005B03BB02E802A803F9
:104FD4001903F7020B03000000006D05BB02DF0696
:104FE4006304C905E10555050D0A002339392D323D
:104FF400302D41442D39372D30382D3134234F573E
:105004005F48656861676F6E5F32004154005348C2
:105014005554204F4B00302C31002E00434F4E4E40
:10502400454354204F4B003E00230041542B434939
:1050340050534855540041542B43434C4B3F00417B
:10504400542B435351004353513A006E616E00692F
:105054006E66006F7666002B373932303232383163
:105064003931300041542B434D47463D313B26579F
:0E5074000041542B434D47533D2200220D00B6
:00000001FF
